:020000040800F2
:10000000E8050020DD0100080B1500083D1300087D
:10001000091500080D030008D919000800000000A8
:100020000000000000000000000000001D15000896
:100030000F030008000000000D1500081F15000840
:10004000F7010008F7010008F7010008F7010008B0
:10005000F7010008F7010008F7010008F7010008A0
:10006000F7010008F701000811030008F701000874
:10007000F7010008F7010008F7010008F701000880
:10008000F7010008F7010008F7010008F701000870
:10009000F7010008F7010008F7010008F701000860
:1000A000F7010008F7010008F7010008F701000850
:1000B000F7010008F7010008F7010008F701000840
:1000C000F7010008F7010008F70100081115000802
:1000D000F7010008F7010008F7010008F701000820
:1000E000F7010008F7010008F7010008F701000810
:1000F000F7010008F7010008F7010008F701000800
:10010000F7010008F7010008F7010008F7010008EF
:10011000F7010008F7010008F7010008F7010008DF
:10012000F7010008F7010008F7010008F7010008CF
:10013000F7010008F7010008F7010008F7010008BF
:10014000F7010008F7010008F7010008F7010008AF
:10015000F7010008F7010008F7010008F70100089F
:10016000F7010008F7010008F7010008F70100088F
:10017000F7010008F7010008F7010008000000007F
:10018000F7010008F7010008F7010008F70100086F
:10019000F7010008F7010008F7010008F70100085F
:1001A000F7010008F7010008F7010008F70100084F
:1001B000F7010008F7010008F7010008F70100083F
:1001C000F7010008F7010008DFF80CD000F08CF808
:1001D000004800471D1A0008E8050020064880472F
:1001E00006480047FEE7FEE7FEE7FEE7FEE7FEE71C
:1001F000FEE7FEE7FEE7FEE7CD150008C9010008AF
:100200002DE9F05F0546002092469B46884606464B
:10021000814640241BE0284641464746224600F0DE
:1002200053F853465A46C01A914110D31146184606
:10023000224600F03AF82D1A67EB01084F46224695
:100240000120002100F031F817EB00094E41201E7B
:10025000A4F10104DFDC484631462A464346BDE8A6
:10026000F09F40EA01039B0703D009E008C9121F71
:1002700008C0042AFAD203E011F8013B00F8013B60
:10028000521EF9D27047D2B201E000F8012B491E8C
:10029000FBD270470022F6E710B513460A46044623
:1002A0001946FFF7F0FF204610BD202A04DB203A54
:1002B00000FA02F1002070479140C2F1200320FAB9
:1002C00003F3194390407047202A04DB203A21FAB7
:1002D00002F00021704721FA02F3D040C2F120025F
:1002E0009140084319467047064C074D06E0E06808
:1002F00040F0010394E8070098471034AC42F6D36D
:10030000FFF766FF5C1B00087C1B0008FEE77047D8
:10031000044810B501F0ACFBBDE81040102000F01F
:1003200017B800000001002070B5044600F012F973
:100330000546601C02D004480078044400F00AF925
:10034000401BA042FAD370BD10000020704700008F
:10035000044910B50A68024202D00860FFF7F6FFB0
:1003600010BD0000143C01402DE9F84FDFF89CE17E
:1003700000224FF001084FF0030B4FF00F0A00BFAF
:100380000B6808FA02F42340A34271D14D68022D94
:1003900001D0122D0FD1D5080E69570700EB850546
:1003A000A9462D6AFF0E0AFA07FCBE4025EA0C0595
:1003B0002E43C9F820600F79550006680BFA05FC3A
:1003C00007F0030726EA0C06AF40374307604E6884
:1003D000012E05D0022E03D0112E01D0122E0ED1E7
:1003E0008668CF6826EA0C06AF40374387604668C8
:1003F0000F79A643C7F30017974037434760C46897
:100400008E6824EA0C04AE402643C6604C68E400C3
:1004100075D53F4C256845F480452560246822F059
:100420000306950704F4804400943A4C2D0F2644AB
:10043000D6F80848DFF8E0C00AFA05F7604524EA74
:10044000070401D100272EE0344FB84201D1012723
:1004500029E0334FB84201D1022724E0314FB8429E
:1004600001D103271FE0304FB84202D104271AE020
:1004700045E02E4FB84201D1052714E02C4FB84279
:1004800001D106270FE02B4FB84201D107270AE020
:10049000294FB84201D1082705E0284FB84201D1C1
:1004A000092700E00A27AF4027437546C6F80878B9
:1004B0004E68DEF80040F60324EA030400D51C432E
:1004C000124E2C60361D4D683468AD0324EA0304D7
:1004D00000D51C430D4F346008374D683C68ED0271
:1004E00024EA030400D51C43084D3C600C354E68DB
:1004F0002C68B60224EA030400D51C432C60521C6D
:10050000102AFFF43DAFBDE8F88F0000003C014029
:100510004438024000300140000002400004024024
:1005200000080240000C024000100240001402408B
:1005300000180240001C024000200240002402403B
:100540000069084000D0012070470AB181617047FE
:100550000904FBE701488068704700001000002094
:1005600002488168027811448160704710000020C1
:10057000032010B500F06EF8002000F005F800F040
:1005800023F8002010BD000070B50D4D04464FF457
:100590007A700C4A29781268B0FBF1F0B2FBF0F0E7
:1005A00000F054FE48B9102C07D200222146501EFC
:1005B00000F030F800206C6070BD012070BD0000BC
:1005C000100000201C0000200A4808B5016841F016
:1005D00080510160006800F0805000900548001DC7
:1005E000016841F480410160006800F4804000909F
:1005F00008BD000040380240002809DB410900F036
:100600001F028900012001F1E0219040C1F80001A2
:10061000704700000E4BF0B41B680D46C3F3022375
:10062000C3F10706042E00D90426191D072901D29B
:10063000002300E0DB1E012404FA06F19C40491E61
:100640002940641E994014402143F0BC01F0C5B913
:100650000CED00E0064900F0070210B54FF6FF046C
:100660000868044B204040EA02201843086010BD8F
:100670000CED00E00000FA051848F8B5016841F0FB
:10068000805101600068164C00F080500090206896
:1006900040F480302060FFF75DFF4FF47A76054626
:1006A00005E000BFFFF756FF401BB0420FD860685F
:1006B000C003F7D5206840F400302060FFF74AFF00
:1006C000054606E0FFF746FF401BB04201D9032074
:1006D000F8BD60688003F5D50020F8BD40380240C1
:1006E000007000400248016841F480710160704769
:1006F000007000402DE9F84F04460078DFF824949C
:100700004FF000063746C0070ED0D9F8001021F48C
:100710000001C9F80010D9F80010626B1143C9F844
:100720000010606B00B90126FE4D2068843500037F
:100730000ED5E16B286820F4401008432860E06B78
:10074000B0F5801F01D010B102E0012600E00127C2
:1007500020684FF4800BC0020CD5216C286820F46F
:10076000400008432860206C584501D1012601E073
:1007700000B901272068C10100D50126800666D591
:10078000E8483830016841F0805101600068DFF8C6
:1007900098A300F080500090DAF8001041F48071C6
:1007A000CAF80010FFF7D6FE804605E0FFF7D2FE3C
:1007B000A0EB080064287DD8DAF80000C005F5D564
:1007C000DFF8608308F16808D8F8000010F4407082
:1007D0002AD0218E01F44071814225D0D8F8001032
:1007E000D8F8002021F4407142F48032C8F800208B
:1007F000D8F8002022F48032C8F80020C8F8001091
:10080000D8F80000C0070FD0FFF7A4FE824607E02B
:10081000FFF7A0FEA0EB0A0141F288308142CAD85E
:10082000D8F800008007F3D5206BC0F3012103291D
:100830007ED0D9F8001021F4F811C9F80010228EEA
:10084000D8F80010C2F30B021143C8F8001020784A
:10085000C00607D5286820F0807028602868A16B42
:10086000084328602188AF488830490405D5626E66
:10087000016821F44031114301602188090405D544
:10088000A26E016821F44021114301602168C9036F
:1008900005D5E26E016821F4401111430160216821
:1008A000890305D5226F016821F4400111430160DD
:1008B000217800E018E1490605D5626C016821F055
:1008C0000301114301602178090605D5A26C016876
:1008D00021F00C01114301602188C90505D5E26CA6
:1008E000016821F03001114301602188890505D597
:1008F000226D016821F0C001114301602188490582
:1009000005D5626D016821F44071114301602188B1
:10091000090505D5A26D016821F44061114301600C
:100920002188C90407D5E26D016821F4405100E037
:1009300041E0114301602188890405D5226E0168D8
:1009400021F44041114301602168490205D5A26F9D
:10095000016821F080611143016021684FF0006A55
:10096000890209D5E26F016821F00061114301603D
:10097000E16F514500D1012721680A0700D5012701
:10098000490305D5626F016821F040711143016090
:100990002168090206D5D4F88020016821F0805131
:1009A00011430160DFF88491012E0ED02068B0F170
:1009B000007F0AD08FE05E4AD9F80030104023F45F
:1009C000F8120243C9F8002039E7D9F800004E4672
:1009D00020F08060C9F80000FFF7BCFD804605E00C
:1009E000FFF7B8FDA0EB080064287DD8306800014F
:1009F000F6D421784B487C30C90712D0616B81B99D
:100A0000237A62680168D0F800C09201C1F3014105
:100A100042EA0142CCF3036142EA016141EA037117
:100A2000016021680A0303D5E26BB2F5801F04D090
:100A3000C9021AD5216C594517D16368016894F829
:100A40000CC002689B01C1F3014143EA0141C2F3BA
:100A5000027241EA0C6141EA027101602968626A2E
:100A600021F01F01521E114329602168C90110D5D0
:100A7000238A62680168D0F800C09201C1F3036163
:100A800042EA034242EA0162CCF3027142EA017196
:100A90000160216889010CD56168228A237B94F862
:100AA00008C0890141EA024141EA036141EA0C714F
:100AB00001603168B04641F080613160FFF74AFD66
:100AC000064604E0FFF746FD801B64280CD8D8F8E2
:100AD00000000001F6D56FB3D9F800004E4620F0B3
:100AE0008050C9F8000000E079E0FFF733FD0746C9
:100AF00005E000BFFFF72EFDC01B64286FD83068EB
:100B0000C0438000F6D50748216880300A0301D52C
:100B1000E26B1AB1C90225D5216C19BB6369016862
:100B2000277E08E00838024000700040003802408C
:100B3000FFFCFF0F5AE00268C1F301419B0143EA49
:100B40000143C2F3027143EA076242EA01710160A4
:100B500029686FF0FF03A26A21F4F85103EB022227
:100B6000114329602168890212D5E16F51450FD1E7
:100B7000238C6269016807689201C1F3036142EA4C
:100B8000034242EA0162C7F3027142EA0171016065
:100B90002178090716D561690268D0F800C08B0179
:100BA000277FC2F30362CCF3014143EA014141EAEA
:100BB000026141EA077101602868E16A20F440306F
:100BC00008432860306840F080503060FFF7C2FC76
:100BD000044607E0FFF7BEFC001B642802D903208F
:100BE000BDE8F88F3068C0438000F3D40020F7E7F9
:100BF0002DE9F04705000F4663D0444E306800F001
:100C00000F00B84209D2306820F00F00384330603E
:100C1000306800F00F00B84253D128683C4C81077F
:100C200012D5400703D5206840F4E05020602878B2
:100C3000000703D5206840F460402060A968206860
:100C400020F0F000084320602878C0072AD03049FF
:100C500068680839012810D00968022810D089076F
:100C600000292EDA216821F0030101432160FFF7FA
:100C700071FC804641F288390DE009688903EFE78D
:100C80008901EDE7FFF766FCA0EB0801494502D9B1
:100C90000320BDE8F0876868216801F00C01B1EB22
:100CA000800FEFD1306800F00F00B8420BD93068E8
:100CB00020F00F0038433060306800F00F00B84279
:100CC00001D00120E5E72878400705D5E9682068CC
:100CD00020F4E050084320602878000706D52869F2
:100CE000216821F4604141EAC000206000F036F83C
:100CF0002168084AC1F30311515CC84006490860E5
:100D00000020FFF741FC0020C3E70000003C024048
:100D100008380240441B00081C0000200449054814
:100D200009680068044AC1F38221515CC8407047D9
:100D3000083802401C000020541B000804490548E4
:100D400009680068044AC1F34231515CC8407047E9
:100D5000083802401C000020541B0008154910B53B
:100D60001548096811F00C0213D04110042A0FD065
:100D7000082A0ED10F4C241F2268236802F03F027C
:100D80005B0207D52068C0F38810A0FB010106E0D4
:100D9000084610BD2168C1F38811A1FB00010023A2
:100DA000FFF72EFA2168C1F30141491C4900B0FB4D
:100DB000F1F010BD083802400024F4002DE9F84F8E
:100DC00005004FF000076ED02878DFF81C93A9F1DA
:100DD000040AC007AAF104044CD0D9F80010484610
:100DE000C1F38101012908D00068C0F38100022805
:100DF0000AD1DAF80000400206D52068800339D510
:100E000068680028DFD035E06868B0F5803F0BD017
:100E100010B1B0F5A02F11D0206820F480302060F0
:100E2000206820F4802002E0206840F480302060B8
:100E3000686890B1FFF78EFB06460AE0206840F430
:100E400080202060F0E700BFFFF784FB801B642850
:100E500072D820688003F7D50CE0FFF77BFB0646CD
:100E600005E000BFFFF776FB801B6428F0D8206800
:100E70008003F7D42878800742D5D9F80010484677
:100E800011F00C0F08D00068C0F3810002280BD1CC
:100E9000DAF80000400207D42068800718D5E86817
:100EA000012800D114E01CE1E8680028206817D070
:100EB00040F001002060FFF74DFB064605E000BF53
:100EC000FFF748FB801B0228C2D820688007F7D5AF
:100ED0002869216821F0F80141EAC00020600FE094
:100EE00020F001002060FFF735FB064605E000BF5B
:100EF000FFF730FB801B02281ED820688007F7D43C
:100F00002878000729D5784869696C30002980461F
:100F1000016812D041F001010160FFF71BFB06469A
:100F200005E000BFFFF716FB801B022804D8D8F8A5
:100F300000008007F6D510E089E021F00101016092
:100F4000FFF708FB064604E0FFF704FB801B0228BE
:100F50007DD8D8F800008007F6D4287840076BD5F4
:100F6000DFF8848108F13808D8F80000C0000BD4FD
:100F7000D8F8001041F08051C8F80010D8F80000EF
:100F8000012700F08050009058480168C90512D42C
:100F90000168834641F480710160FFF7DBFA064681
:100FA00005E000BFFFF7D6FA801B64284FD8DBF8B6
:100FB0000000C005F6D54C4EA868683601280AD056
:100FC00008B1052811D0306820F001003060306889
:100FD00020F0040002E0306840F001003060A868B2
:100FE000A0B1FFF7B7FA83460CE0306840F0040088
:100FF0003060F0E7FFF7AEFAA0EB0B0141F288306A
:10100000814266D830688007F4D50EE0FFF7A2FA77
:10101000834607E0FFF79EFAA0EB0B0141F2883010
:10102000814256D830688007F4D42FB1D8F8001028
:1010300021F08051C8F80010A869C8B3D9F8001091
:10104000C1F3810102294CD00228206800E040E071
:1010500020F08070206003D0FFF77CFA05463BE06B
:10106000FFF778FA064604E0FFF774FA801B0228BF
:101070002FD820688001F7D4D5E90962D5E90701A6
:101080001B4B570895F82C20084303EB074343EA12
:101090008611084340EA026040F00050CAF80000A0
:1010A000206840F080702060FFF754FA054606E0A3
:1010B00015E000BFFFF74EFA401B022809D8206850
:1010C0008001F7D50BE000BFFFF744FA401B022870
:1010D00002D90320BDE8F88F20688001F4D40020F5
:1010E000F8E70120F6E700000838024000700040F1
:1010F0000000FFFF2DE9F047040005D094F85D00E3
:101100000025A56218B107E00120BDE8F087204660
:1011100084F85C5000F050F8022284F85D204FF40F
:10112000E0632068016821F040010160E0689842B6
:1011300001D9002101E04FF48051B0F5706F02D069
:10114000984200D0A5624FF00109266B2EB9984253
:1011500001D9226301E0C4F83090D4E90468D4E9ED
:101160000102278B46EA0806A36A104307F40078B9
:1011700030432668D4E907C240EA080040EA0C0080
:10118000CC460427104318433060D4F81880666BAF
:10119000606AE26807EA1847236830433A4310431D
:1011A000084358602068C16921F40061C161256667
:1011B00084F85DC00020A8E7F0B587B0044614218C
:1011C0006846FFF767F81D492068884234D11C48FB
:1011D000016841F480510160006800F4805005907E
:1011E00017481438016841F001010160016801F0FD
:1011F00001010591016841F00201016000680224CB
:101200000025694600F002000590032605276020AE
:101210008DE8F1000B48FFF7A7F8202069468DE81C
:10122000F1000948FFF7A0F8002223201146FFF73C
:10123000F1F92320FFF7E0F907B0F0BD00300140DD
:10124000443802400000024000040240401EB0F159
:10125000807F10B501D3012010BD4FF0E024606104
:101260000F21601700F0B9FB0020A0610721216168
:1012700010BD10B5040002D0606F10B107E001206E
:1012800010BD002084F87000204600F025F82420CE
:1012900060672068016821F001010160204600F0CC
:1012A00041FA0128ECD0606A10B1204600F0B8F98C
:1012B0002068416821F4904141602068816821F0F4
:1012C0002A0181602068016841F001010160204627
:1012D000BDE8104000F008BA10B586B004461421ED
:1012E0006846FEF7D7FF1249206888421ED1114890
:1012F000016841F480210160006800F480200590BD
:101300000C481038016841F00801016000680221B2
:10131000002200F008000590032307244FF44070DA
:101320008DE81F0004486946FFF71EF806B010BD9F
:101330000048004040380240000C0240FEE7000038
:10134000104A90ED000A82ED000A90ED010A82ED4C
:10135000010A90ED020A82ED020A91ED000A82ED87
:10136000030A91ED010A82ED040A91ED020A82ED71
:10137000050A91ED030A034982ED060A1C220020AA
:1013800000F070BB200000202DE9F04186B0142150
:101390006846FEF77FFF3B48016841F004010160A9
:1013A000016801F004010591016841F080010160CC
:1013B000016801F080010591016841F001010160BF
:1013C000016801F001010591016841F0020101602D
:1013D000016801F002010591016841F00801016016
:1013E000016801F008010591016841F040010160C8
:1013F000006844F28106244F002200F0400031468C
:1014000005903846FFF7A1F8DFF8808000224021E0
:101410004046FFF79AF81E4900244FF400508DE82B
:1014200013001C486946FEF79FFF1B490125102049
:101430008DE8230019486946FEF796FF0096694635
:10144000CDE9015438460394FEF78EFF402000900A
:10145000CDE90154694640460394FEF785FF80209C
:101460006946CDE9000440460294FEF77DFF002264
:101470000A201146FFF7CEF80A20FFF7BDF806B0A4
:10148000BDE8F081303802400004024000180240FC
:10149000000011100008024000003110000002405E
:1014A0000C48002130B40A4C4FF4E062C0E900411E
:1014B0006315C0E9021201610724C0E90513016246
:1014C0004162C0E90A140163416330BCFFF712BEF8
:1014D00000300140000100200A48002130B4084CCF
:1014E0000C224FF4E1330460C0E90131C160C0E96E
:1014F00004128161C1610162416230BCFFF7B9BE73
:101500000048004064010020FEE77047704700007B
:10151000014800F0E3BA0000000100207047FFF727
:101520001FB8000070B5B4B0302121A8FEF7B2FE9C
:1015300014212DA8FEF7AEFE84216846FEF7AAFE10
:10154000FFF7D0F81E48016841F080510160006843
:1015500000F0805032901B48016841F44041016026
:1015600000684FF4A021022400F440403290012092
:10157000D825820509260423CDE92742CDE921019A
:10158000CDE92935CDE92B4621A8FFF717FCFFF758
:1015900073F8E2024FF4A0510025CDE930122DAAD4
:1015A0000F20072182E831002DA8FFF721FB064814
:1015B00013951F9500906846FFF79CF834B070BDF6
:1015C000403802400070004000012000104A30B551
:1015D0001048146800210F4B44F470041460083361
:1015E00005680D4A0D4C45F001050560196003685A
:1015F000051D1340074A03600C322C600568E305A3
:10160000034C25F480250560803C1160236030BDCB
:1016100088ED00E000380240FFFFF6FE10300024A5
:1016200090F82410C90706D00168836A4A6822F43A
:1016300000321A434A6090F82410890706D50168E1
:10164000C36A4A6822F480321A434A6090F8241030
:10165000490706D50168036B4A6822F480221A43C1
:101660004A6090F82410090706D50168436B4A6860
:1016700022F400421A434A6090F82410C90606D5A5
:101680000168836B8A6822F480521A438A6090F85A
:101690002410890606D50168C36B8A6822F40052BB
:1016A0001A438A6090F82410490611D50168036C2A
:1016B0004A6822F480121A434A60016CB1F5801F17
:1016C00006D10168436C4A6822F4C0021A434A609A
:1016D00090F82410090606D50168826C486820F449
:1016E000002010434860704738B500250446C567A0
:1016F000FEF730FF03462068006800070BD56FF047
:101700007E400090002220464FF4001100F034F992
:1017100008B1032038BD2020606784F87050A067AE
:10172000002038BD2DE9F04104468068DFF818C27A
:10173000864F2368D4E90452E16928431E680025D6
:101740000A438349104306EA0C0606431E604FF421
:1017500000422068E668436823F440533343436003
:101760002368A669206AD3F808C030432CF4306699
:1017700006439E602068B8420AD1086810F0030052
:1017800052D001287BD002287AD003286ED186E07F
:10179000704B98420AD1086810F00C0079D00428E8
:1017A0007BD0082877D00C2860D178E06A4B98422B
:1017B0000AD1086810F030006BD010286DD02028B6
:1017C00069D0302852D16AE0644B98420AD1086847
:1017D00010F0C0005DD040285FD080285BD0C028CA
:1017E00044D15CE05E4B98420DD1086810F4407023
:1017F0004FD0B0F5807F50D0B0F5007F4BD0B0F522
:10180000407F33D14BE0574B98420FD1086810F41A
:10181000406009D0B0F5806F3FD0B0F5006F3AD08E
:10182000B0F5406F22D13AE0012120E04E4B9842C2
:101830000DD1086810F440502BD0B0F5805F2CD04B
:10184000B0F5005F27D0B0F5405F0FD127E0474BE0
:1018500098420BD1086810F440401AD0B0F5804F80
:101860001BD0904217D0B0F5404F18D01021E0693E
:101870004FF6EF76904238D109295DD202E00CE0B4
:1018800009E006E0DFE801F00D1027582A58585803
:101890002D000021EBE70221E9E70421E7E7082119
:1018A000E5E7FFF73BFA01E0FFF748FA0146D4F815
:1018B0000400490001EB5001B1FBF0F080B2A0F14F
:1018C0001001B14238D84FF6F0732168C0F34202DC
:1018D0001840104324E026496068EBE7FFF73EFA22
:1018E000E4E760684FF48031E4E7092924D2DFE8B7
:1018F00001F0050819231C2323231F00FFF70EFA0C
:1019000001E0FFF71BFA0146D4F8040001EB500197
:10191000B1FBF0F080B2A0F11001B1420CD8216807
:10192000C8600AE013496068F0E7FFF717FAEAE7D2
:10193000606802EB5001EBE701250020206660663D
:101940002846BDE8F0810000F369FFEF0010014078
:10195000903802400044004000480040004C0040E5
:10196000005000400014014000780040007C00401E
:101970000048E8010024F4002DE9F041984617469C
:101980000E460446069D08E0681C06D0FEF7E2FD00
:10199000A0EB0800A8420BD855B12068C06936EA10
:1019A000000017D00020B842EED00020BDE8F08142
:1019B0002168202000220B6823F4D0730B6021687B
:1019C0008B6823F001038B606067A067032084F8B5
:1019D0007020EBE70120E6E7FEE7090700284FEA61
:1019E000116104DB00F1E02080F80014704700F082
:1019F0000F0000F1E02080F8141D704702E008C8D5
:101A0000121F08C1002AFAD170477047002001E078
:101A100001C1121F002AFBD17047000088B0FEF7F9
:101A2000A7FDFFF77FFDFFF7AFFCFFF739FDFFF7DD
:101A300053FD0A4800F046F809480DF1100C0EC895
:101A40008CE80E000FC88DE80F0004A86946FFF768
:101A500077FC6420FEF768FCFBE700000001002033
:101A6000281B0008014B1844FEF7FBBB8000002038
:101A700010B5044600688168C907FCD10F481021E1
:101A8000FEF75EFD0E4900284FF000000AD02268E4
:101A9000136843F48073136048602068016821F084
:101AA000400109E048602068016821F4807101600C
:101AB0002068016841F04001016010BD0000024053
:101AC000000000200068416841F040014160024888
:101AD0007F21FEF7DFBB000080000020104910B519
:101AE0004C6802680F4B107B6CB10C78012C12D043
:101AF0004A781A4402F8010C4878401C487048683B
:101B0000401C486010BD00F07F044C70C009087094
:101B100008780128F0D14878185C1073ECE70000D1
:101B200000000020800000200000003F0000C03FB7
:101B30000000004000000040000080400000A04085
:101B40000000C0400000000000000000010203048B
:101B50000607080900000000010203047C1B0008BE
:101B60000000002020000000FC1900089C1B000859
:101B700020000020C80500000C1A0008000000002A
:101B80000000000000000000000000000100000054
:0C1B900010000000000000000024F40021
:04000005080001C925
:00000001FF
