:020000040800F2
:1000000040080020DD0100089F1700080D150008BA
:100010009D1700080D030008A91C0008000000003F
:10002000000000000000000000000000D5170008DC
:100030009103000800000000A1170008F517000850
:10004000F7010008F7010008F7010008F7010008B0
:10005000F7010008F7010008F7010008F7010008A0
:10006000F7010008F701000893030008F7010008F2
:10007000F7010008F7010008F7010008F701000880
:10008000F7010008F7010008F7010008F701000870
:10009000F7010008F7010008F7010008F701000860
:1000A000F7010008F7010008F7010008F701000850
:1000B000F7010008F7010008F7010008F701000840
:1000C000F7010008F7010008F7010008F701000830
:1000D000F7010008F7010008F7010008F701000820
:1000E000F7010008F7010008F7010008F701000810
:1000F000F7010008F7010008F7010008F701000800
:10010000F7010008F7010008F7010008F7010008EF
:10011000F7010008F7010008F7010008F7010008DF
:100120000F030008F7010008F70100081303000897
:10013000F7010008F7010008F7010008F7010008BF
:10014000F7010008F7010008F7010008F7010008AF
:10015000F7010008F7010008F7010008F70100089F
:10016000F7010008F7010008F7010008F70100088F
:10017000F7010008F7010008F7010008000000007F
:10018000F7010008F7010008F7010008F70100086F
:10019000F7010008F7010008F7010008F70100085F
:1001A000F7010008F7010008F7010008F70100084F
:1001B000F7010008F7010008F7010008F70100083F
:1001C000F7010008F7010008DFF80CD000F08CF808
:1001D00000480047ED1C0008400800200648804702
:1001E00006480047FEE7FEE7FEE7FEE7FEE7FEE71C
:1001F000FEE7FEE7FEE7FEE79D180008C9010008DC
:100200002DE9F05F0546002092469B46884606464B
:10021000814640241BE0284641464746224600F0DE
:1002200053F853465A46C01A914110D31146184606
:10023000224600F03AF82D1A67EB01084F46224695
:100240000120002100F031F817EB00094E41201E7B
:10025000A4F10104DFDC484631462A464346BDE8A6
:10026000F09F40EA01039B0703D009E008C9121F71
:1002700008C0042AFAD203E011F8013B00F8013B60
:10028000521EF9D27047D2B201E000F8012B491E8C
:10029000FBD270470022F6E710B513460A46044623
:1002A0001946FFF7F0FF204610BD202A04DB203A54
:1002B00000FA02F1002070479140C2F1200320FAB9
:1002C00003F3194390407047202A04DB203A21FAB7
:1002D00002F00021704721FA02F3D040C2F120025F
:1002E0009140084319467047064C074D06E0E06808
:1002F00040F0010394E8070098471034AC42F6D36D
:10030000FFF766FFA41F0008C41F0008FEE701F006
:1003100073BD704701681823CAB2103AB2FBF3F2FA
:10032000054B6FF30901032A9B5CC36500D9091DC6
:100330008165084670470000841F000810B5836976
:100340004FF0C074826A0146002053B1B3F5005FDC
:1003500015D072B1012A0CD0022A0AD0032A09D181
:1003600004E01AB1012A06D0022A03D1C96AC901E0
:1003700000D5012010BDC96AA142FAD010BD002AE3
:10038000F7D0012AF2D0022AF3D0032AF3D010BD0D
:10039000704710B501F038FDBDE81040102000F0A6
:1003A00087B870472DE9F047044600F083F9054609
:1003B00064B14FF0000984F83490022184F83510BC
:1003C0002068016821F0010101600EE00120BDE814
:1003D000F08700BF00F06EF9401B052805D92021E9
:1003E0006165032084F83500F1E720680068C007E4
:1003F000F0D1D4E90020D4E90251D4E9043C2843E7
:1004000004F1180519430843116895E8E00140EA32
:100410000C001C4B2843194040EA060040EA070044
:10042000B8F1040F40EA010003D1D4E90B131943DA
:100430000843106020680126656A4069042D20F099
:10044000070045EA00050CD1D4E90A01054341B192
:100450002046FFF773FF20B14020606584F83560C7
:10046000B4E7206845612046FFF754FF94F85C30FC
:100470003F229A408260C4F8549084F8356000208E
:10048000A5E700003F8010F070B5044600F012F9B7
:100490000546601C02D004480078044400F00AF9C4
:1004A000401BA042FAD370BD0C0000207047000032
:1004B000044910B50A68024202D00860FFF7F6FF4F
:1004C00010BD0000143C01402DE9F84FDFF89CE11D
:1004D00000224FF001084FF0030B4FF00F0A00BF4E
:1004E0000B6808FA02F42340A34271D14D68022D33
:1004F00001D0122D0FD1D5080E69570700EB8505E5
:10050000A9462D6AFF0E0AFA07FCBE4025EA0C0533
:100510002E43C9F820600F79550006680BFA05FCD8
:1005200007F0030726EA0C06AF40374307604E6822
:10053000012E05D0022E03D0112E01D0122E0ED185
:100540008668CF6826EA0C06AF4037438760466866
:100550000F79A643C7F30017974037434760C46835
:100560008E6824EA0C04AE402643C6604C68E40062
:1005700075D53F4C256845F480452560246822F0F8
:100580000306950704F4804400943A4C2D0F26444A
:10059000D6F80848DFF8E0C00AFA05F7604524EA13
:1005A000070401D100272EE0344FB84201D10127C2
:1005B00029E0334FB84201D1022724E0314FB8423D
:1005C00001D103271FE0304FB84202D104271AE0BF
:1005D00045E02E4FB84201D1052714E02C4FB84218
:1005E00001D106270FE02B4FB84201D107270AE0BF
:1005F000294FB84201D1082705E0284FB84201D160
:10060000092700E00A27AF4027437546C6F8087857
:100610004E68DEF80040F60324EA030400D51C43CC
:10062000124E2C60361D4D683468AD0324EA030475
:1006300000D51C430D4F346008374D683C68ED020F
:1006400024EA030400D51C43084D3C600C354E6879
:100650002C68B60224EA030400D51C432C60521C0B
:10066000102AFFF43DAFBDE8F88F0000003C0140C8
:1006700044380240003001400000024000040240C3
:1006800000080240000C024000100240001402402A
:1006900000180240001C02400020024000240240DA
:1006A0000069084000D0012070470AB1816170479D
:1006B0000904FBE701488068704700000C00002037
:1006C0000248816802781144816070470C00002064
:1006D000032010B500F06EF8002000F005F800F0DF
:1006E00023F8002010BD000070B50D4D04464FF4F6
:1006F0007A700C4A29781268B0FBF1F0B2FBF0F086
:1007000000F08CFE48B9102C07D200222146501E62
:1007100000F030F800206C6070BD012070BD00005A
:100720000C000020180000200A4808B5016841F0BC
:1007300080510160006800F0805000900548001D65
:10074000016841F480410160006800F4804000903D
:1007500008BD000040380240002809DB410900F0D4
:100760001F028900012001F1E0219040C1F8000141
:10077000704700000E4BF0B41B680D46C3F3022314
:10078000C3F10706042E00D90426191D072901D23A
:10079000002300E0DB1E012404FA06F19C40491E00
:1007A0002940641E994014402143F0BC01F07DBAF9
:1007B0000CED00E0064900F0070210B54FF6FF040B
:1007C0000868044B204040EA02201843086010BD2E
:1007D0000CED00E00000FA051848F8B5016841F09A
:1007E000805101600068164C00F080500090206835
:1007F00040F480302060FFF75DFF4FF47A760546C5
:1008000005E000BFFFF756FF401BB0420FD86068FD
:10081000C003F7D5206840F400302060FFF74AFF9E
:10082000054606E0FFF746FF401BB04201D9032012
:10083000F8BD60688003F5D50020F8BD403802405F
:10084000007000400248016841F480710160704707
:10085000007000402DE9F84F04460078DFF824943A
:100860004FF000063746C0070ED0D9F8001021F42B
:100870000001C9F80010D9F80010626B1143C9F8E3
:100880000010606B00B90126FE4D2068843500031E
:100890000ED5E16B286820F4401008432860E06B17
:1008A000B0F5801F01D010B102E0012600E0012761
:1008B00020684FF4800BC0020CD5216C286820F40E
:1008C000400008432860206C584501D1012601E012
:1008D00000B901272068C10100D50126800666D530
:1008E000E8483830016841F0805101600068DFF865
:1008F00098A300F080500090DAF8001041F4807165
:10090000CAF80010FFF7D6FE804605E0FFF7D2FEDA
:10091000A0EB080064287DD8DAF80000C005F5D502
:10092000DFF8608308F16808D8F8000010F4407020
:100930002AD0218E01F44071814225D0D8F80010D0
:10094000D8F8002021F4407142F48032C8F8002029
:10095000D8F8002022F48032C8F80020C8F800102F
:10096000D8F80000C0070FD0FFF7A4FE824607E0CA
:10097000FFF7A0FEA0EB0A0141F288308142CAD8FD
:10098000D8F800008007F3D5206BC0F301210329BC
:100990007ED0D9F8001021F4F811C9F80010228E89
:1009A000D8F80010C2F30B021143C8F800102078E9
:1009B000C00607D5286820F0807028602868A16BE1
:1009C000084328602188AF488830490405D5626E05
:1009D000016821F44031114301602188090405D5E3
:1009E000A26E016821F44021114301602168C9030E
:1009F00005D5E26E016821F44011114301602168C0
:100A0000890305D5226F016821F44001114301607B
:100A1000217800E018E1490605D5626C016821F0F3
:100A20000301114301602178090605D5A26C016814
:100A300021F00C01114301602188C90505D5E26C44
:100A4000016821F03001114301602188890505D535
:100A5000226D016821F0C001114301602188490520
:100A600005D5626D016821F4407111430160218850
:100A7000090505D5A26D016821F4406111430160AB
:100A80002188C90407D5E26D016821F4405100E0D6
:100A900041E0114301602188890405D5226E016877
:100AA00021F44041114301602168490205D5A26F3C
:100AB000016821F080611143016021684FF0006AF4
:100AC000890209D5E26F016821F0006111430160DC
:100AD000E16F514500D1012721680A0700D50127A0
:100AE000490305D5626F016821F04071114301602F
:100AF0002168090206D5D4F88020016821F08051D0
:100B000011430160DFF88491012E0ED02068B0F10E
:100B1000007F0AD08FE05E4AD9F80030104023F4FD
:100B2000F8120243C9F8002039E7D9F800004E4610
:100B300020F08060C9F80000FFF7BCFD804605E0AA
:100B4000FFF7B8FDA0EB080064287DD830680001ED
:100B5000F6D421784B487C30C90712D0616B81B93B
:100B6000237A62680168D0F800C09201C1F30141A4
:100B700042EA0142CCF3036142EA016141EA0371B6
:100B8000016021680A0303D5E26BB2F5801F04D02F
:100B9000C9021AD5216C594517D16368016894F8C8
:100BA0000CC002689B01C1F3014143EA0141C2F359
:100BB000027241EA0C6141EA027101602968626ACD
:100BC00021F01F01521E114329602168C90110D56F
:100BD000238A62680168D0F800C09201C1F3036102
:100BE00042EA034242EA0162CCF3027142EA017135
:100BF0000160216889010CD56168228A237B94F801
:100C000008C0890141EA024141EA036141EA0C71ED
:100C100001603168B04641F080613160FFF74AFD04
:100C2000064604E0FFF746FD801B64280CD8D8F880
:100C300000000001F6D56FB3D9F800004E4620F051
:100C40008050C9F8000000E079E0FFF733FD074667
:100C500005E000BFFFF72EFDC01B64286FD8306889
:100C6000C0438000F6D50748216880300A0301D5CB
:100C7000E26B1AB1C90225D5216C19BB6369016801
:100C8000277E08E00838024000700040003802402B
:100C9000FFFCFF0F5AE00268C1F301419B0143EAE8
:100CA0000143C2F3027143EA076242EA0171016043
:100CB00029686FF0FF03A26A21F4F85103EB0222C6
:100CC000114329602168890212D5E16F51450FD186
:100CD000238C6269016807689201C1F3036142EAEB
:100CE000034242EA0162C7F3027142EA0171016004
:100CF0002178090716D561690268D0F800C08B0118
:100D0000277FC2F30362CCF3014143EA014141EA88
:100D1000026141EA077101602868E16A20F440300D
:100D200008432860306840F080503060FFF7C2FC14
:100D3000044607E0FFF7BEFC001B642802D903202D
:100D4000BDE8F88F3068C0438000F3D40020F7E797
:100D50002DE9F04705000F4663D0444E306800F09F
:100D60000F00B84209D2306820F00F0038433060DD
:100D7000306800F00F00B84253D128683C4C81071E
:100D800012D5400703D5206840F4E0502060287851
:100D9000000703D5206840F460402060A9682068FF
:100DA00020F0F000084320602878C0072AD030499E
:100DB00068680839012810D00968022810D089070E
:100DC00000292EDA216821F0030101432160FFF799
:100DD00071FC804641F288390DE009688903EFE72C
:100DE0008901EDE7FFF766FCA0EB0801494502D950
:100DF0000320BDE8F0876868216801F00C01B1EBC1
:100E0000800FEFD1306800F00F00B8420BD9306886
:100E100020F00F0038433060306800F00F00B84217
:100E200001D00120E5E72878400705D5E96820686A
:100E300020F4E050084320602878000706D5286990
:100E4000216821F4604141EAC000206000F036F8DA
:100E50002168084AC1F30311515CC8400649086083
:100E60000020FFF741FC0020C3E70000003C0240E7
:100E7000083802408C1F000818000020044905486B
:100E800009680068044AC1F38221515CC840704778
:100E900008380240180000209C1F0008044905483B
:100EA00009680068044AC1F34231515CC840704788
:100EB00008380240180000209C1F0008154910B592
:100EC0001548096811F00C0213D04110042A0FD004
:100ED000082A0ED10F4C241F2268236802F03F021B
:100EE0005B0207D52068C0F38810A0FB010106E073
:100EF000084610BD2168C1F38811A1FB0001002341
:100F0000FFF77EF92168C1F30141491C4900B0FB9C
:100F1000F1F010BD083802400024F4002DE9F84F2C
:100F200005004FF000076ED02878DFF81C93A9F178
:100F3000040AC007AAF104044CD0D9F800104846AE
:100F4000C1F38101012908D00068C0F381000228A3
:100F50000AD1DAF80000400206D52068800339D5AE
:100F600068680028DFD035E06868B0F5803F0BD0B6
:100F700010B1B0F5A02F11D0206820F4803020608F
:100F8000206820F4802002E0206840F48030206057
:100F9000686890B1FFF78EFB06460AE0206840F4CF
:100FA00080202060F0E700BFFFF784FB801B6428EF
:100FB00072D820688003F7D50CE0FFF77BFB06466C
:100FC00005E000BFFFF776FB801B6428F0D820689F
:100FD0008003F7D42878800742D5D9F80010484616
:100FE00011F00C0F08D00068C0F3810002280BD16B
:100FF000DAF80000400207D42068800718D5E868B6
:10100000012800D114E01CE1E8680028206817D00E
:1010100040F001002060FFF74DFB064605E000BFF1
:10102000FFF748FB801B0228C2D820688007F7D54D
:101030002869216821F0F80141EAC00020600FE032
:1010400020F001002060FFF735FB064605E000BFF9
:10105000FFF730FB801B02281ED820688007F7D4DA
:101060002878000729D5784869696C3000298046BE
:10107000016812D041F001010160FFF71BFB064639
:1010800005E000BFFFF716FB801B022804D8D8F844
:1010900000008007F6D510E089E021F00101016031
:1010A000FFF708FB064604E0FFF704FB801B02285D
:1010B0007DD8D8F800008007F6D4287840076BD593
:1010C000DFF8848108F13808D8F80000C0000BD49C
:1010D000D8F8001041F08051C8F80010D8F800008E
:1010E000012700F08050009058480168C90512D4CB
:1010F0000168834641F480710160FFF7DBFA064620
:1011000005E000BFFFF7D6FA801B64284FD8DBF854
:101110000000C005F6D54C4EA868683601280AD0F4
:1011200008B1052811D0306820F001003060306827
:1011300020F0040002E0306840F001003060A86850
:10114000A0B1FFF7B7FA83460CE0306840F0040026
:101150003060F0E7FFF7AEFAA0EB0B0141F2883008
:10116000814266D830688007F4D50EE0FFF7A2FA16
:10117000834607E0FFF79EFAA0EB0B0141F28830AF
:10118000814256D830688007F4D42FB1D8F80010C7
:1011900021F08051C8F80010A869C8B3D9F8001030
:1011A000C1F3810102294CD00228206800E040E010
:1011B00020F08070206003D0FFF77CFA05463BE00A
:1011C000FFF778FA064604E0FFF774FA801B02285E
:1011D0002FD820688001F7D4D5E90962D5E9070145
:1011E0001B4B570895F82C20084303EB074343EAB1
:1011F0008611084340EA026040F00050CAF800003F
:10120000206840F080702060FFF754FA054606E041
:1012100015E000BFFFF74EFA401B022809D82068EE
:101220008001F7D50BE000BFFFF744FA401B02280E
:1012300002D90320BDE8F88F20688001F4D4002093
:10124000F8E70120F6E7000008380240007000408F
:101250000000FFFF2DE9F047040005D094F85D0081
:101260000025A56218B107E00120BDE8F0872046FF
:1012700084F85C5000F050F8022284F85D204FF4AE
:10128000E0632068016821F040010160E068984255
:1012900001D9002101E04FF48051B0F5706F02D008
:1012A000984200D0A5624FF00109266B2EB99842F2
:1012B00001D9226301E0C4F83090D4E90468D4E98C
:1012C0000102278B46EA0806A36A104307F4007858
:1012D00030432668D4E907C240EA080040EA0C001F
:1012E000CC460427104318433060D4F81880666B4E
:1012F000606AE26807EA1847236830433A431043BC
:10130000084358602068C16921F40061C161256605
:1013100084F85DC00020A8E72DE9F04786B00746B5
:1013200014216846FEF7B6FF35493868884264D113
:101330003448016841F480510160006800F4805035
:10134000059030481438016841F0010101600168DE
:1013500001F001010591016841F00201016000689E
:10136000022503264FF0050800F002006021CDE9B8
:10137000001500246946CDE904802348CDE90246E2
:10138000FFF7A2F82021214802AACDE900156946FD
:1013900082E85001FFF798F81D4E4FF480691D4B0D
:1013A0004FF0C0684FF4003A30463360C6E901841C
:1013B000C6E903497461B461C6E9074A7462FEF77D
:1013C000F1FF08B1FEF7EDFF134D4023BE6505F1B7
:1013D0000800B7630F4A80E818026C614832AC61BC
:1013E0002846C5E9074A6C62C5E90028FEF7DAFF1E
:1013F00008B1FEF7D6FF7D65AF6306B0BDE8F087A4
:101400000030014044380240000002400004024025
:101410007C03002010640240DC030020401EB0F179
:10142000807F10B501D3012010BD4FF0E024606132
:101430000F21601700F039FC0020A0610721216115
:1014400010BD10B5040002D0606F10B107E001209C
:1014500010BD002084F87000204600F025F82420FC
:1014600060672068016821F001010160204600F0FA
:10147000C1FA0128ECD0606A10B1204600F038FAB9
:101480002068416821F4904141602068816821F022
:101490002A0181602068016841F001010160204655
:1014A000BDE8104000F088BA10B586B0044614219B
:1014B0006846FEF7EFFE1249206888421ED11148A7
:1014C000016841F480210160006800F480200590EB
:1014D0000C481038016841F00801016000680221E1
:1014E000002200F008000590032307244FF4407009
:1014F0008DE81F0004486946FEF7E6FF06B010BD00
:101500000048004040380240000C0240FEE7000066
:10151000104A90ED000A82ED000A90ED010A82ED7A
:10152000010A90ED020A82ED020A91ED000A82EDB5
:10153000030A91ED010A82ED040A91ED020A82ED9F
:10154000050A91ED030A034982ED060A1C220020D8
:1015500000F04CBC1C0200200C4B30B40468DC6072
:1015600044681C6180685861086898614868D8615F
:10157000886819461862106818605068586090684A
:10158000242298601E2030BC00F030BC38020020BD
:101590002DE9F04F87B014216846FEF77BFE5E48C8
:1015A000016841F004010160016801F00401059146
:1015B000016841F080010160016801F0800105913E
:1015C000016841F001010160016801F0010105912C
:1015D000016841F002010160016801F0020105911A
:1015E000016841F008010160016801F008010591FE
:1015F000016841F040010160006844F2810ADFF8AF
:101600001CB1002200F04000514605905846FFF7FB
:101610004CF8434800224021FFF747F80024414995
:10162000DFF804914FF40058CDF80080CDE90114A3
:1016300069464846FEF748FF02256946322002AA5D
:10164000CDE90005032648460B2782E8D000FEF7C7
:101650003BFF8620694602AACDE90005334882E8AF
:10166000D000FEF731FF1020009031486946CDE9E7
:1016700001042E48FEF728FF4FF00109CDF800A025
:10168000CDE90194694658460394FEF71DFF02AA6E
:101690006946584682E8D000CDE90085FEF714FF80
:1016A00040210091CDE901941D4869460394FEF75D
:1016B0000BFF80206946CDE9000419480294FEF72B
:1016C00003FF4FF4E85000900A206946CDE903601B
:1016D0001648CDE90154FEF7F7FE28026946CDE928
:1016E000000412480294FEF7EFFE4FF420506946C2
:1016F00002AACDE900050A4882E8D000FEF7E4FE20
:1017000000220A201146FFF735F80A20FFF724F8D7
:1017100007B0BDE8F08F00003038024000040240FE
:1017200000180240000011100008024000000240B2
:10173000000031100C48002130B40A4C4FF4E06234
:10174000C0E900416315C0E9021201610724C0E944
:10175000051301624162C0E90A140163416330BCB0
:10176000FFF778BD003001407C0200200A480021CC
:1017700030B4084C0C224FF4E1330460C0E901316D
:10178000C160C0E904128161C1610162416230BC83
:10179000FFF757BE00480040E0020020FEE7704718
:1017A000704700000A4A0368136043685360836807
:1017B0009360C068D06008681061486850618868AC
:1017C0009061C868D06120220149442000F00EBB1E
:1017D0005C0200207047000010B505490422044651
:1017E0006E2000F0FBFA0248001F4068206010BD28
:1017F00004000020FEF764BF70B5B4B0302121A80A
:10180000FEF748FD14212DA8FEF744FD842168460B
:10181000FEF740FDFFF716F81E48016841F08051C1
:101820000160006800F0805032901B48016841F46C
:1018300040410160006802240DF1A40C00F4404016
:10184000329060050421D822CDE9274009232C934A
:101850004FF4A0268CE816000125CDE9215621A8D9
:10186000FFF75CFBFEF7B8FFE102B0112DABCDE94D
:1018700030010F22002583E8340007212DA8FFF74F
:1018800067FAE001139500906846FEF7E3FF34B075
:1018900070BD00004038024000700040104A30B572
:1018A0001048146800210F4B44F47004146008338E
:1018B00005680D4A0D4C45F0010505601960036887
:1018C000051D1340074A03600C322C600568E305D0
:1018D000034C25F480250560803C1160236030BDF9
:1018E00088ED00E000380240FFFFF6FE10300024D3
:1018F00090F82410C90706D00168836A4A6822F468
:1019000000321A434A6090F82410890706D501680E
:10191000C36A4A6822F480321A434A6090F824105D
:10192000490706D50168036B4A6822F480221A43EE
:101930004A6090F82410090706D50168436B4A688D
:1019400022F400421A434A6090F82410C90606D5D2
:101950000168836B8A6822F480521A438A6090F887
:101960002410890606D50168C36B8A6822F40052E8
:101970001A438A6090F82410490611D50168036C57
:101980004A6822F480121A434A60016CB1F5801F44
:1019900006D10168436C4A6822F4C0021A434A60C7
:1019A00090F82410090606D50168826C486820F476
:1019B000002010434860704738B500250446C567CD
:1019C000FEF778FE03462068006800070BD56FF02D
:1019D0007E400090002220464FF4001100F034F9C0
:1019E00008B1032038BD2020606784F87050A067DC
:1019F000002038BD2DE9F04104468068DFF818C2A8
:101A0000864F2368D4E90452E16928431E68002503
:101A10000A438349104306EA0C0606431E604FF44E
:101A200000422068E668436823F440533343436030
:101A30002368A669206AD3F808C030432CF43066C6
:101A400006439E602068B8420AD1086810F003007F
:101A500052D001287BD002287AD003286ED186E0AC
:101A6000704B98420AD1086810F00C0079D0042815
:101A70007BD0082877D00C2860D178E06A4B984258
:101A80000AD1086810F030006BD010286DD02028E3
:101A900069D0302852D16AE0644B98420AD1086874
:101AA00010F0C0005DD040285FD080285BD0C028F7
:101AB00044D15CE05E4B98420DD1086810F4407050
:101AC0004FD0B0F5807F50D0B0F5007F4BD0B0F54F
:101AD000407F33D14BE0574B98420FD1086810F448
:101AE000406009D0B0F5806F3FD0B0F5006F3AD0BC
:101AF000B0F5406F22D13AE0012120E04E4B9842F0
:101B00000DD1086810F440502BD0B0F5805F2CD078
:101B1000B0F5005F27D0B0F5405F0FD127E0474B0D
:101B200098420BD1086810F440401AD0B0F5804FAD
:101B30001BD0904217D0B0F5404F18D01021E0696B
:101B40004FF6EF76904238D109295DD202E00CE0E1
:101B500009E006E0DFE801F00D1027582A58585830
:101B60002D000021EBE70221E9E70421E7E7082146
:101B7000E5E7FFF783F901E0FFF790F90146D4F8B4
:101B80000400490001EB5001B1FBF0F080B2A0F17C
:101B90001001B14238D84FF6F0732168C0F3420209
:101BA0001840104324E026496068EBE7FFF786F908
:101BB000E4E760684FF48031E4E7092924D2DFE8E4
:101BC00001F0050819231C2323231F00FFF756F9F2
:101BD00001E0FFF763F90146D4F8040001EB50017E
:101BE000B1FBF0F080B2A0F11001B1420CD8216835
:101BF000C8600AE013496068F0E7FFF75FF9EAE7B9
:101C0000606802EB5001EBE701250020206660666A
:101C10002846BDE8F0810000F369FFEF00100140A5
:101C2000903802400044004000480040004C004012
:101C3000005000400014014000780040007C00404B
:101C40000048E8010024F4002DE9F04198461746C9
:101C50000E460446069D08E0681C06D0FEF72AFDE5
:101C6000A0EB0800A8420BD855B12068C06936EA3D
:101C7000000017D00020B842EED00020BDE8F0816F
:101C80002168202000220B6823F4D0730B602168A8
:101C90008B6823F001038B606067A067032084F8E2
:101CA0007020EBE70120E6E7FEE7090700284FEA8E
:101CB000116104DB00F1E02080F80014704700F0AF
:101CC0000F0000F1E02080F8141D704702E008C802
:101CD000121F08C1002AFAD170477047002001E0A6
:101CE00001C1121F002AFBD1704700002DED028BAD
:101CF0008CB0FEF7EDFCFFF77FFDFFF749FC2C48A9
:101D0000016841F48001016000680022114600F47E
:101D100080000B903820FEF72DFD3820FEF71CFDCB
:101D200000223B201146FEF725FD3B20FEF714FD67
:101D3000FFF700FDFFF71AFD00F0C6F81D480DF192
:101D40000C0C1D4D1D4CB7EE088A0EC8F0EE048A2F
:101D50008DE80E004EC88CE84E000FC80DF11C0C2B
:101D60008CE80F000A20FEF78FFB134800F028F8DC
:101D70002878124900EE100A10480C31B8EE400ADB
:101D800084ED000A84ED018AC4ED028AFFF7C0FBEE
:101D90006A4611460846FFF7DFFB07A903A8FFF7CD
:101DA00001FD0548FFF718FD28780090DAE70000EC
:101DB00030380240581F000808000020600300204F
:101DC00010B5054904220446662000F007F80248D1
:101DD0000068206010BD0000000000200B46024992
:101DE00001441846FEF73DBA1C000020014B184480
:101DF000FEF737BA9C00002002498022A1F58070CE
:101E0000FEF72FBA1C0100202DE9F04128481021CF
:101E1000FEF746FC274D4FF0FF36DFF89C80274F3A
:101E2000274CE0B1296821F001012960D8F80010A1
:101E300021F00101C8F800103E60206840F4807075
:101E40002060206820F040002060606820F00100E1
:101E50006060606820F002006060BDE8F0811949B0
:101E6000802201F58070FEF7FCF961688020114A3C
:101E700041F001016160121D61680F4B41F00201E8
:101E800061601B1D106018603E60296841F001010F
:101E90002960D8F8001041F00101C8F8001020684E
:101EA00020F480702060206840F040002060D4E77B
:101EB000000002401064024058640240086402407E
:101EC000003001409C00002070B51F488021FEF7C3
:101ED000E1F91D4880218030FEF7DCF91B48002223
:101EE0000260016841F0C0610160016841F40031A5
:101EF0000160016841F4806101600368134943F0A7
:101F00001003036048310A60086840F0C060086050
:101F1000086840F4003008600B680C4A0C4843F431
:101F2000806408320C60131D0D68084C45F04005B4
:101F30000D605034261D106006491960206001F1C3
:101F40008000306070BD00001C0000201064024062
:101F50000C3001401C0100200100000002000000C4
:101F60000300000064000000020000000300000005
:101F700004000000640000000400000005000000F0
:101F800006000000000610160006101600000000F3
:101F90000000000001020304060708090000000019
:101FA00001020304C41F0008000000201C00000000
:101FB000CC1C0008E01F00081C00002024080000C2
:101FC000DC1C000800000000000000000000000011
:101FD0000100000010000000000000000024F400D8
:04000005080001C925
:00000001FF
